:020000040800F2
:100000009007002089010008631C00081D160008E5
:10001000611C0008A3020008312000080000000055
:10002000000000000000000000000000AD1D0008FE
:100030001B03000800000000651C0008F31D0008F9
:10004000A3010008A3010008A3010008A301000800
:10005000A3010008A3010008A3010008A3010008F0
:10006000A3010008A3010008A3010008A3010008E0
:10007000A3010008A3010008A3010008A3010008D0
:10008000A3010008A3010008A3010008A3010008C0
:10009000A3010008A3010008A3010008A3010008B0
:1000A000A3010008A3010008A3010008A3010008A0
:1000B000A3010008A3010008A3010008A301000890
:1000C000A3010008A3010008A3010008A301000880
:1000D000A3010008A3010008A3010008A301000870
:1000E000A3010008A3010008A301000800F002F822
:1000F00000F03AF80AA090E8000C82448344AAF188
:100100000107DA4501D100F02FF8AFF2090EBAE885
:100110000F0013F0010F18BFFB1A43F0010318473B
:10012000C4200000E4200000103A24BF78C878C141
:10013000FAD8520724BF30C830C144BF04680C60ED
:10014000704700000023002400250026103A28BF35
:1001500078C1FBD8520728BF30C148BF0B60704739
:100160001FB51FBD10B510BD00F058F81146FFF7C0
:10017000F7FF01F09DFF00F076F803B4FFF7F2FF00
:1001800003BC00F07DF8000009488047094800479B
:10019000FEE7FEE7FEE7FEE7FEE7FEE7FEE7FEE737
:1001A000FEE7FEE704480549054A064B7047000094
:1001B000551E0008ED000008900100209007002067
:1001C00090030020900300204FF0000200B513467A
:1001D00094469646203922BFA0E80C50A0E80C5067
:1001E000B1F12001BFF4F7AF090728BFA0E80C5018
:1001F00048BF0CC05DF804EB890028BF40F8042B11
:1002000008BF704748BF20F8022B11F0804F18BF7D
:1002100000F8012B7047704770477047754600F033
:100220002BF8AE4605006946534620F00700854688
:1002300018B020B5FFF7B6FFBDE820404FF000062C
:100240004FF000074FF000084FF0000B21F00701BE
:10025000AC46ACE8C009ACE8C009ACE8C009ACE801
:10026000C0098D46704710B50446AFF300802046A4
:10027000BDE81040FFF781BF004870472C01002007
:1002800001491820ABBEFEE726000200704710B5FA
:10029000142001F0F9FC0321BDE81040142001F006
:1002A0009CBDFEE72DE9F0410E46074615460421A8
:1002B000052000F026F880210A2001F08EFD0024A0
:1002C00005E0395D092001F0C9FE641CE4B2B442C6
:1002D000F7D30321012001F0C1FEFF24052001F026
:1002E000D3FC641E14F0FF0401D04007F6D5222091
:1002F00001F0CAFC2870212001F0C6FC6870BDE83E
:10030000F08170B50C46054601F0BEFC20EA040100
:100310002846BDE8704001F0A1BE7047074908B506
:100320000968074AB1FBF2F1064A41435068536835
:100330001B1A00938B42FAD308BD00002400002052
:1003400040420F00001000E01CB50749012301AA3C
:10035000097908438DF804000A2000904E210348D3
:1003600000F0D8F91CBD0000010000208000002032
:1003700070B5044600F004F90546601C02D004483C
:100380000078044400F0FCF8401BA042FAD370BD92
:10039000180000202DE9F84FDFF8B8910024A9F1EA
:1003A000040B23460F2709F1040AABF1040EC9E040
:1003B0000125A5402A40AA427DD1674ED1F804C04C
:1003C000ACEB0608B44532D014DCBCF1030F3AD0D4
:1003D00009DCBCF1000F2AD0BCF1010F1CD0BCF12C
:1003E000020F31D11DE0BCF1110F17D0BCF1120F7B
:1003F0002AD119E0B8F5881F19D006DCB8F5803F7E
:1004000015D0B8F5801F1FD111E0B8F5001F0ED030
:10041000B8F5041F18D10AE0CB6815E0CB681B1DA6
:1004200012E0CB6808330FE0CB680C330CE08B682C
:100430002BB1012B4FF0080303D0456104E00423E6
:1004400002E0056100E00023FF2A01D8064601E032
:1004500000F104064FEA840501D9A5F12005D6F87C
:10046000008007FA05FC28EA0C0803FA05F548EABB
:100470000508C6F800804D68ED0062D5374DAE69BD
:1004800046F00106AE61AD6924F0030605F00105F2
:100490000095334D06EB050CDCF80850A607360F27
:1004A00007FA06F825EA0805DFF8B880404503D1C9
:1004B0004FF0000817E044E0DFF8AC80404502D17F
:1004C0004FF001080FE0DFF8A480404502D14FF063
:1004D000020808E0DFF89880404502D14FF0030899
:1004E00001E04FF0040808FA06F848EA0508CCF8DD
:1004F00008804D68D9F80060ED024D4601D51643DD
:1005000000E096432E604D68DAF80060AD02554673
:1005100001D5164300E096432E604D68DBF800607D
:10052000AD035D4601D5164300E096432E604D684D
:10053000DEF80060ED03754601D5164300E09643F2
:100540002E60641C0D682A46E5407FF431AFBDE89B
:10055000F88F000008040140000011100010024054
:100560000000014000080140000C01400010014063
:10057000001401400AB1016170470904FBE7000063
:1005800001488068704700001800002070B5040022
:1005900025D094F83D00002520B984F83C50204631
:1005A00000F04EF9242084F83D002068016821F015
:1005B000010101602068016841F400410160206888
:1005C000016821F40041016000F088FA4D4A616839
:1005D000914201D84C4900E04C49884201D20120A7
:1005E00070BD4B492368B0FBF1F15E6826F03F0611
:1005F0000E435E606368934206D94FF49673594385
:100600004FF47A73B1FBF3F12368491C1E6A26F09C
:100610003F06314319626168914210D84900401E7B
:10062000B0FBF1F2521CC2F30B02042A01D20420E7
:1006300022E0B0FBF1F0401CC0F30B001CE0A2680C
:10064000F2B301EBC10303EB0116431EB3FBF6F358
:100650005B1C43F480431B0549D092B301EBC102FC
:1006600002EB0111401EB0FBF1F0401CC0F30B0087
:1006700040F4804040F400402168CA694CF6FF73A2
:100680009A431043C861D4E9071001432068026807
:1006900022F0C00211430160D4E903010143206844
:1006A000826848F2FF339A4311438160D4E905011F
:1006B00008432168CA6822F0FF021043C86001E0C5
:1006C0000EE016E02068016841F001010160256438
:1006D000202084F83D00256384F83E50002070BD42
:1006E00001EB4106431EB3FBF6F35B1CB3E70120AD
:1006F000C2E701EB4101401EB0FBF1F0401CC0F32A
:100700000B00B7E7A086010080841E0000093D00B1
:1007100040420F002DE9F84F1F4690468A46044696
:10072000DDF82890FFF72CFF054694F83D002028BF
:100730007FD11923012240492046009501F000F89D
:10074000002876D194F83C00012872D0012084F86A
:100750003C0020680168C90703D1016841F001012C
:1007600001602068016821F400610160212084F8A3
:100770003D00102084F83E0000262664C4F8248042
:100780006785608D20852D48E0622B464A4651469C
:10079000204600F05BFF90B92068416980690090B5
:1007A00036E02A464946204601F070F850B1206CE8
:1007B000042804D12068016841F40071016001201F
:1007C000BDE8F88F606A216800780861606A401CA3
:1007D0006062618D491E6185218D491E89B2218526
:1007E00022685369DB435B070BD451B10078106179
:1007F000606A401C6062608D401E6085208D401ED6
:1008000020852A464946204600F06EFF0028CED1BA
:10081000208D0028C5D154F83D0B016841F40071CA
:100820000160202004F81E09E67766770020C7E7FC
:10083000FFE70220C4E70000020010000000FFFFF5
:1008400010B586B0002100910191029103910068DA
:100850000F4988421AD10F4CA06940F00800A061EE
:10086000A069694600F008000490C02000901220A2
:100870000190032003900848FFF78CFDE06940F4E5
:100880000010E061E06900F40010049006B010BDB3
:100890000054004000100240000C014002488168F2
:1008A000027811448160704718000020074810B595
:1008B000016841F010010160032000F067F80F208B
:1008C00000F006F800F024F8002010BD00200240DF
:1008D00070B50D4D04464FF47A712878B1FBF0F0F5
:1008E0000A490968B1FBF0F000F048FC48B9102C47
:1008F00007D200222146501E00F028F800206C602C
:1009000070BD012070BD00001800002024000020F0
:100910000C4808B5816941F001018161816901F0EC
:1009200001010091C16941F08051C161C06900F0CD
:10093000805000900448416821F0E06141F000716E
:10094000416008BD0010024000000140F0B40E4BB1
:100950001B680C46C3F30223C3F10705042D00D91D
:100960000425191D072901D2002300E0DB1E012602
:1009700006FA05F1491E214099409E40761E164018
:100980003143F0BC01F084BB0CED00E0064900F0FF
:10099000070208684FF6FF03184040EA0220034AA6
:1009A00010430860704700000CED00E00000FA05FD
:1009B0002DE9F0470F46050061D0434E306800F046
:1009C0000700B84209D2306820F007003843306091
:1009D000306800F00700B84251D128683B4C8107CD
:1009E00012D5400703D5606840F4E0606060287865
:1009F000000703D5606840F4605060606068A968D3
:100A000020F0F000084360602878C00728D06868AC
:100A1000012810D02168022810D0890700292EDA79
:100A2000616821F0030101436160FFF7A9FD804681
:100A300041F288390DE021688903EFE78901EDE78C
:100A4000FFF79EFDA0EB0801494502D90320BDE850
:100A5000F0876068696800F00C00B0EB810FEFD19F
:100A6000306800F00700B8420BD9306820F007006A
:100A700038433060306800F00700B84201D00120F0
:100A8000E5E72878400705D56068E96820F4E0606C
:100A9000084360602878000706D56068296920F45B
:100AA000605040EAC100606000F028F86168084AC0
:100AB000C1F30311515CC84006490860064800684C
:100AC000FFF706FF0020C2E70020024000100240AE
:100AD000CA210008240000201C0000200448054909
:100AE00000684968044AC1F30221515CC84070475C
:100AF0002400002000100240DA2100080E4A51684C
:100B00000E4801F00C03042B11D0082B0FD10C4818
:100B1000C1F38343C903C05C0AD55168084AC1F3D5
:100B20004041921E515C054A5043B0FBF1F07047C2
:100B300004494843704700000010024000127A0048
:100B4000BA21000800093D002DE9F84F040070D0DB
:100B50002078C04DC00749D06868C0F381000128E3
:100B600007D06868C0F38100022809D16868C00313
:100B700006D52868800339D560680028E7D035E0BD
:100B80006068B0F5803F0BD010B1B0F5A02F11D048
:100B9000286820F480302860286820F4802002E053
:100BA000286840F480302860606890B1FFF7E8FC66
:100BB00006460AE0286840F480202860F0E700BF7D
:100BC000FFF7DEFC801B642873D828688003F7D504
:100BD0000CE0FFF7D5FC064605E000BFFFF7D0FCB0
:100BE000801B6428F0D828688003F7D420789A4EB8
:100BF00080074FF001094FF0000839D5686810F000
:100C00000C0F07D06868C0F38100022809D168681A
:100C1000C00306D42868800714D52069012808D1AC
:100C200010E02069B0B1C6F80090FFF7A9FC0746B4
:100C300005E00AE1FFF7A4FCC01B0228C4D828681D
:100C40008007F7D52868616920F0F80040EAC10004
:100C500028600DE0C6F80080FFF792FC074604E02C
:100C6000FFF78EFCC01B022823D828688007F7D422
:100C7000207800072CD57948A169D9B1C0F8009037
:100C8000FFF77EFC074604E0FFF77AFCC01B022852
:100C90000FD8686A8007F7D571484FF4FA51006899
:100CA000B0FBF1F0009000BF0098411E0091FAD215
:100CB0000EE080E0C0F80080FFF762FC074604E029
:100CC000FFF75EFCC01B022875D8686A8007F7D45E
:100CD0002078400760D5E8690027C00008D4E8699B
:100CE00040F08050E861E869012700F080500090F2
:100CF0005C480168C90513D40168834641F48071DA
:100D00000160FFF73DFC824606E000BFFFF738FCBC
:100D1000A0EB0A0064284ED8DBF80000C005F5D52A
:100D2000E06801280AD008B1052813D0286A20F00D
:100D300001002862286A20F0040002E0286A40F0DE
:100D400001002862E06841F2883B98B1FFF718FC87
:100D500082460BE0286A40F004002862EEE700BFFC
:100D6000FFF70EFCA0EB0A0159455AD8286A800704
:100D7000F6D50CE0FFF704FC824605E0FFF700FC27
:100D8000A0EB0A0159454CD8286A8007F6D41FB158
:100D9000E86920F08050E861E06988B36968C1F3D0
:100DA0008101022944D00228C6F8608004D0FFF7F0
:100DB000E7FB044638E034E0FFF7E2FB074604E0D7
:100DC000FFF7DEFBC01B02282BD828688001F7D470
:100DD000206AB0F5803F05D16868A16820F4003032
:100DE00008436860D4E908010843696821F4741174
:100DF00008436860C6F86090FFF7C2FB044606E04F
:100E000025E000BFFFF7BCFB001B022809D82868BB
:100E10008001F7D51BE000BFFFF7B2FB001B0228E3
:100E200002D90320BDE8F88F28688001F4D40EE0D1
:100E30000128F7D06868226A00F48031914204D119
:100E4000616A00F47010884201D00120EAE70020B6
:100E5000E8E70000001002400000424280044242E5
:100E6000240000200070004070B5040009D0606AC2
:100E7000002540B125616561A56294F8510040B13B
:100E80000CE0012070BD6068B0F5827FF4D0E561B0
:100E9000F2E784F85050204600F040F8022084F831
:100EA00051002068016821F040010160A08821897B
:100EB00000F4827001F404410843A18901F4006147
:100EC0000843217C01F002010843217D01F001016A
:100ED0000843218B01F400710843217F01F03801A0
:100EE000084394F8201001F080010843218D01F49B
:100EF0000051084321680860A069042101EA1040FC
:100F0000216848602068C16921F40061C16165659C
:100F1000012084F85100002070BD000030B585B07C
:100F200000240094019402940394006814498842B8
:100F300023D11448816941F480518161816901F4B0
:100F400080510491816941F00401816180690E4DF5
:100F500000F004000490A0200090022001900320E3
:100F6000039069462846FFF715FA4020CDE90004B2
:100F7000694628460294FFF70DFA05B030BD00001F
:100F80000030014000100240000801402DE9FF4FF1
:100F900081B01D46934604464FF001090E9EFFF7AF
:100FA000EFFA074694F851006168012806D0B1F5C0
:100FB000827F3CD1A168C9BB042838D1029800289F
:100FC00071D0BBF1000FFBD0002DF9D094F8500088
:100FD00001282CD04FF0010A84F850A094F8510059
:100FE000042802D0052084F851004FF00008C4F80E
:100FF0005480C4F838B0E587A58702992163E58657
:10100000A586C4F84080C4F8448020680168490679
:1010100003D4016841F040010160E068B0F5006F61
:10102000606808D0F0B3012D49D081E0FFE70220CD
:1010300005B0BDE8F08F08B1012D39D1206B2168D2
:101040000088C860206B801C2063E08E401EE08614
:101050002EE02068816889070FD5E18E69B1B9F16A
:10106000010F0AD1216B0988C160206B801C2063AD
:10107000E08E401EE0864FF0000920688168C907B5
:101080000CD0E18F51B1C068A16B0880A06B801CAF
:10109000A063E08F401EE0874FF00109FFF770FA70
:1010A000C01B01E00BE067E0B04201D3701C50D1DF
:1010B000E08E0028CDD1E08F0028CAD13EE0206B21
:1010C000216800780873206B401C2063E08E401E6E
:1010D000E0862DE02068816889070FD5E18E69B12F
:1010E000B9F1010F0AD1216B09780173206B401C03
:1010F0002063E08E401EE0864FF000092068816882
:10110000C9070CD0E18F51B1C068A16B0870A06B0A
:10111000401CA063E08F401EE0874FF00109FFF7FD
:101120002FFAC01BB04202D3701C01D011E086B16F
:10113000E08E0028CED1E08F0028CBD13A46314650
:10114000204600F0BDFD50B12020606584F850803D
:1011500012E084F851A084F85080032068E7A0686A
:1011600018B92068C1688068009084F851A084F89C
:101170005080606D0028F1D0012059E710B5401E65
:10118000B0F1807F01D3012010BD4FF0E0246061F9
:101190000F21601700F07CFF0020A0610720206174
:1011A000002010BD10B590F83C20012A22D0012269
:1011B00080F83C20CA688C6822F4407222434C6854
:1011C00022F4806222430C6822F4006222430C69FC
:1011D00022F4805222434C6922F400522243C9690E
:1011E000002322F480420A4301684A6480F83C30BC
:1011F000002010BD022010BD70B590F83C20012ADF
:1012000026D0012480F83C40022280F83D2003686B
:101210005A689D6822F070060A6832435A600D4B86
:1012200002689A4208D0B2F1804F05D00A4B9A4228
:1012300002D00A4B9A4204D1496825F08003194331
:10124000916080F83D40002180F83C10084670BD58
:10125000022070BD002C0140000400400008004046
:1012600000B585B0002100910191029103910068C1
:101270000B49884212D10B48816941F00401816118
:101280008069694600F0040004904FF4807000907B
:101290000220019003900448FFF77CF805B000BDE0
:1012A000002C0140001002400008014070B50446C7
:1012B00090F83C0000260D4601280FD0012084F84C
:1012C0003C006AB1042A1DD0082A2FD00C2A3FD036
:1012D0000126002084F83C00304670BD022070BD1D
:1012E000206800F003FE2068816941F008018161F7
:1012F0002068816921F004018161206881692A697F
:10130000114311E0206800F019FE2068816941F462
:10131000006181612068816921F4806181612068B8
:1013200081692A6941EA02218161D2E7206800F0DF
:1013300031FE2068C16941F00801C1612068C169BE
:1013400021F00401C1612068C1692A69114311E0DB
:10135000206800F04BFE2068C16941F40061C16162
:101360002068C16921F48061C1612068C1692A696E
:1013700041EA0221C161ACE710B5040003D094F842
:101380003D0010B107E0012010BD002084F83C00B2
:10139000204600F01FF8022084F83D00211D20683F
:1013A00000F05AFD012084F8460084F83E0084F8DD
:1013B0003F0084F8400084F8410084F8420084F83B
:1013C000430084F8440084F8450084F83D00002080
:1013D00010BD000008B500680649884208D10648DB
:1013E000816941F400618161806900F400600090CE
:1013F00008BD0000002C01400010024010B504465A
:10140000022249B104290ED0082913D094F84100D2
:10141000012816D0012010BD94F83E000128F9D112
:1014200084F83E200FE094F83F000128F2D184F8C0
:101430003F2008E094F840000128EBD184F84020D8
:1014400001E084F841200122206800F041FD0F49AD
:101450002068884203D1426C42F400424264206812
:10146000884208D0B0F1804F05D00949884202D0A7
:101470000849884204D1816801F00701062903D098
:10148000016841F001010160002010BD002C014005
:10149000000400400008004010B5012000F09AFC54
:1014A000BDE810404FF4FA60FEF738BF70B50D4646
:1014B00000F00700402141EAC00000F08BFC00244E
:1014C000285D00F084FC641C082CF9DB70BD000072
:1014D0000449487840F00400487040F0080000F0EB
:1014E00079BC00000100002010B5022000F072FC61
:1014F000BDE810404FF4FA60FEF710BF70B5334CF2
:1015000008220021E070227104252170012801D9F0
:10151000227000E025702E48026822F0807202607E
:10152000026842F0807202602A48026822F00102DA
:101530000260026842F001020260416000BF00BF29
:1015400000BF3220FEF714FF2079FEF7FDFE4FF4B6
:101550007A70FEF70DFF302000F06BFD41F294161B
:101560003046FEF7DBFE302000F063FD3046FEF72C
:10157000D5FE302000F05DFD3046FEF7CFFE202086
:1015800000F057FD6420FEF7C9FE207840F02000EF
:1015900000F020FC6570FFF79BFFFFF77DFF022046
:1015A000A070062000F016FC3046FEF7B7FE074993
:1015B0000020491DFFF77AFF044901200D31FFF794
:1015C00075FFBDE87040FFF78FBF000001000020ED
:1015D000FCED00E0001000E010B5044602E0641CE1
:1015E00000F0F5FB20780028F9D110BD7FB5094D3A
:1015F0003CCD8DE83C00084AD278914201D3521E7E
:10160000D1B21DF821100844C0B240F0800000F0B3
:10161000E1FB7FBDA821000801000020FEE7016872
:101620004A69D24352050FD46FF480624A610021A7
:1016300040F8301F202242738173026942F0040295
:10164000026101730120704700207047F8B504461D
:10165000C06A1E460D461746082807D0012805D047
:1016600010F5803F02D0206B122804D12068016859
:1016700041F480710160134600224FF001112046B1
:10168000009600F05DF840B120680068C00502D502
:101690004FF4007020640320F8BD2069B0F5804F3E
:1016A0000ED00620216800EAD51040F0F000086155
:1016B00033463A460B49204600F08AF878B902E0F2
:1016C00005F0FE0000E0E8B22168086105493346F4
:1016D0003A46891F204600F07BF80028DCD0012024
:1016E000F8BD00000800010070B516460D4604461E
:1016F0001EE02046FFF793FF08B1012070BD681C73
:1017000016D0FEF73DFF801BA84200D885B920689F
:101710004069C04340070BD5002044F8300F20211A
:101720006173A073216941F0200121612073E4E716
:1017300020684069C0434007DBD4002070BD000032
:101740002DE9F047984617460D460446C1F3074673
:10175000DDF820902AE000BFB8F1FF3F26D0FEF769
:101760000FFFA0EB0901414502D8B8F1000F1DD1D0
:101770002068012E16D0806925EA00000004000CC4
:1017800012D00020B84211D1002044F8300F20219F
:101790006173A073216941F0200121612073012050
:1017A000BDE8F0874069E7E70120EBE72068012EFC
:1017B0000AD0806925EA00000004000C06D0002051
:1017C000B842C9D00020EBE74069F3E70120F7E712
:1017D0002DE9F047984616460D4604464FF000099D
:1017E0004FF0200AC1F3074723E020684069C04357
:1017F000400515D42068016841F40071016021683A
:101800006FF480604861C4F8309084F83DA084F89B
:101810003E90216C41F00401216484F83C9021E069
:10182000701C06D0FEF7ACFEA0EB0800B04203D857
:1018300016B1012F1FD021E02068012F15D080693B
:1018400025EA00000004000C18D000BF44F8309FC7
:1018500084F80DA084F80E90216941F020012161E7
:1018600084F80C900120BDE8F087406925EA00006B
:101870000004000CEAD12068406901E0206880691A
:1018800025EA00000004000CAFD1ECE770B5164665
:101890000D4604461EE02046FFF7C1FE08B10120B8
:1018A00070BD681C16D0FEF76BFE801BA84200D8E6
:1018B00085B920684069C04300060BD5002044F874
:1018C000300F20216173A073216941F02001216153
:1018D0002073E4E720684069C0430006DBD40020A1
:1018E00070BD0EB550208DF8040000208DF8050065
:1018F0000DF10602022101A8FEF7D4FC02A801ABFB
:101900000090042219460C2000F04AF80EBD000099
:1019100010B5012210211348FEF72CFE01221146BA
:101920001148FEF727FE00F037F88D212A2000F03D
:1019300095FB3E212B2000F091FB1E212D2000F075
:101940008DFB00212C2000F089FB4021152000F0A8
:1019500085FB3D21112000F081FBBDE81040FEF722
:1019600096BC000000080140000C01407CB50C460C
:10197000054607210D2000F071FB257001A82346C4
:101980000090012219460C2000F00AF810B90199C4
:10199000102900D002207CBD0F21012000F05EBB89
:1019A0002DE9FF5F00270225DDF838A016468B469B
:1019B0008146B8460C2805D0B9F10E0F05D1122783
:1019C000102001E077273020804647F08001022078
:1019D00000F044FB80210420FEF793FC80210A20C4
:1019E00000F0FBF90021012000F038FB002405E0A5
:1019F0001BF80410092000F031FB641CB442F7D33B
:101A00004946012000F02AFBB9F10C0F03D18021D7
:101A10000D2000F0E2F94FF4FA66042000F034F9EA
:101A20000446761E04D0E00702D114EA080FF4D071
:101A300080210D20FEF765FC36B1062000F024F968
:101A400010F01B0F04D0022504B02846BDE8F09F1B
:101A500000253C40E00700D00125B9F10C0FF3D17F
:101A60000A2000F011F904460C2000F00DF910F0E6
:101A700007004FEAC40101D008390144CAF8001038
:101A800024B1102C04D91024002603E00124FBE724
:101A9000002605E0092000F0F7F803998855761C28
:101AA000A642F7D3D0E700002DE9F04786B0002426
:101AB0002D480094019402940394816941F010012F
:101AC0008161816901F010010491816941F0200177
:101AD0008161816901F020010491816941F0040173
:101AE0008161816901F004010491816941F008017B
:101AF00081618069DFF8748000F008004FF40055C0
:101B00000490002229464046FEF734FDDFF860903D
:101B1000002210214846FEF72DFDDFF858A06F1C6B
:101B2000002239465046FEF725FD00950226012584
:101B30000396CDE9015469464046FEF72BFC102080
:101B4000CDE90005CDE9024669464846FEF722FC8C
:101B500000970396CDE9015469465046FEF71AFCFA
:101B600006B0BDE8F0870000001002400010014000
:101B700000080140000C01400F4810B50D490160FC
:101B80004FF48271416000218160C1604FF40072A6
:101B90000161C0E905121022C0E90721416281629A
:101BA0000A21C162FFF760F9002801D072B6FEE792
:101BB00010BD0000003001402800002010B592B098
:101BC00000240F941C2108A81094FEF7FDFA202190
:101BD0006846FEF7F9FA21481F49016040F2631197
:101BE000C0E9011440F20771C0E903144461846143
:101BF000FFF7C2FB08B172B6FEE70F940FA91748B2
:101C00001094FFF7F9FA08B172B6FEE76020CDE94B
:101C100008040A940B940C940D94002208A90F4810
:101C20000E94FFF743FB08B172B6FEE700944FF441
:101C30000050CDE90440029401940394694607489A
:101C40000794FFF7AFFA08B172B6FEE70348FFF753
:101C500007FB12B010BD0000002C0140D400002092
:101C6000FEE7FEE77047000001B582B064200090F7
:101C7000012301AA02A90348FFF788F99DF804008F
:101C80000EBD00002800002070B50C4D0446002257
:101C900010212846FEF76EFC7E2000EA440040F04A
:101CA0008000FFF7E1FF0020FFF7DEFF044601227E
:101CB00010212846FEF75EFC204670BD000801405A
:101CC000F8B515460E460B46009204460122022145
:101CD00000F010F840B933460022802120460095DC
:101CE00000F008F8002804D0606D40F02000606526
:101CF0000320F8BD2DE9F8431E4691468846044668
:101D0000089DFEF73DFC401B351AFEF739FC0746DF
:101D100025480068C0F3CB30684338E0701C37D0EA
:101D2000FEF72EFCC01BA84203D215B1009860B389
:101D30002CE02068416821F0E00141606068B0F566
:101D4000827F0BD1A068B0F5004F02D0B0F5806F54
:101D500004D12068016821F040010160A06AB0F55B
:101D6000005F09D12068016821F4005101602068FA
:101D7000016841F400510160012084F85100002005
:101D800084F850000320BDE8F8830025401E009031
:101D90002068816838EA010004D000214945BDD19E
:101DA0000020F0E70121F9E724000020704770B51A
:101DB00000F0F00200070C46050E42EA040000F0B5
:101DC00038F945EA0400BDE8704000F032B901215D
:101DD000FFF7EDBF0021FFF7EABF70B50C460546DF
:101DE000FFF752FF40EA04012846BDE8704000F0CA
:101DF00035B9FEF753BD30B58FB028216846FEF7E0
:101E0000E3F914210AA8FEF7DFF901210804CDE95E
:101E100000100024029402250491CDE907504FF4EC
:101E2000E01009906846FEF78FFE08B172B6FEE733
:101E30000F20CDE90A054FF48060CDE90C40022166
:101E40000AA80E94FEF7B4FD002801D072B6FEE792
:101E50000FB030BD70470000F0B50268194B1A4C46
:101E60001A4D4FF08047984205D0B84203D0A042A7
:101E700001D0A84203D122F070064A68324398424A
:101E800005D0B84203D0A04201D0A84203D122F429
:101E90004074CA6822434C6922F0800222430260E7
:101EA0008A68C2620A688262984201D10969016344
:101EB000012141610169C90703D0016921F00101D4
:101EC0000161F0BD002C014000040040000800400A
:101ED00010B501F01F030121046A99408C4304628C
:101EE000016A9A401143016210BD000030B5036AD7
:101EF000026A22F0010202624268846924F07305DA
:101F00000C682C4323F002058B682B430A4DA84232
:101F10000BD123F00805CB6822F440722B434D69A6
:101F200023F0040315438A692A43426084614968A7
:101F30004163036230BD0000002C014030B5026AED
:101F4000036A23F010030362436884690D6824F474
:101F5000E64444EA05248D6822F0200242EA051294
:101F60000B4DA8420ED1CD6822F0800242EA051244
:101F70004D6923F4406343EA85038D6922F04002F2
:101F800043EA85034360846149688163026230BD2E
:101F9000002C014030B5036A026A22F480720262AA
:101FA0004268C46923F4007324F073050C682C4361
:101FB0008D6843EA05230C4DA8420ED1CD6823F469
:101FC000006343EA05234D6922F4405242EA0512B8
:101FD0008D6923F4806342EA05124260C461496856
:101FE000C163036230BD0000002C014030B5046ABB
:101FF000026A22F4805202624268C3690D6823F4C7
:10200000E64343EA05238D6824F4005444EA05348A
:10201000064DA84204D14D6922F4804242EA85125D
:102020004260C36149680164046230BD002C014014
:10203000FEE710B50446FEF787F944F00400FEF70A
:1020400083F91420FEF76AF924F00400FEF77CF906
:10205000BDE810401420FEF761B9000070B50B4DCB
:102060000E460446002210212846FEF783FA7E2001
:1020700000EA4400FFF7F8FD3046FFF7F5FD28467B
:10208000BDE8704001221021FEF774BA000801403B
:102090000907090E002804DB00F1E02080F8001495
:1020A000704700F00F0000F1E02080F8141D704729
:1020B000FEF7FCFBFFF79FFEFFF7F6FCFFF75CFD6A
:1020C000FFF77CFD2A4829494FF4804201602949E5
:1020D000416000218160C0E9031241618161C161F9
:1020E0000162FEF753FA08B172B6FEE70220FFF76D
:1020F00005FA00210846FFF779FA1FA0FFF76CFAEE
:10210000FFF706FC1A4800215430FFF777F91B4C03
:102110001B4E41F288374FF4805500222946304645
:10212000FEF728FA124926209C31FFF71FFC207089
:102130003846FEF71DF920784FF0000100280846C8
:102140000DD0FFF753FA0FA0FFF746FA01222946F8
:102150003046FEF70FFA00BFFFF7C3FBDDE7FFF7DE
:1021600045FA0CA0FFF738FAF6E7000000540040EB
:1021700080000020A08601004869000000000020C7
:10218000000C01404B686F6E6720746861792074A1
:10219000686500005468652064612070686174207F
:1021A0006869656E0000000000000000400000004B
:1021B0001400000054000000010202030405060799
:1021C00008090A0B0C0D0E0F101000000000000093
:1021D00000000102030406070809000000000102D4
:1021E0000304000004220008000000202800000072
:1021F000280100082C2200082800002068070000A1
:102200004401000800000000000000191B060C1B20
:102210001300181806090809060000000100000054
:0C222000100000000000000000127A0016
:04000005080000ED02
:00000001FF
